:020000040000FA
:040000001BEF00F002
:100008001E82FACF0FF0FBCF10F0F2BAF2A403D0A1
:10001800FEEC00F006D0F2BC9DA003D09EB0D2EC5E
:1000280000F010C0FBFF0FC0FAFF1E92110042EF54
:1000380001F05BEC01F0BBEC00F01DD00A50D8B425
:1000480004D011EC01F0000E0A6E1C50D8B405D093
:10005800095062EC00F0000E1C6E0B50146E156A0D
:100068001A50141808E11B501518D8A404D0010E12
:100078000A6E010E1D6E1D50D8A41CD0DFD70A04CD
:10008800D8A404D04FEC01F0000E0A6E010ED16E18
:10009800030000F000F0184A192A055018180AE160
:1000A80006501918D8A406D0000ED16E000E1D6E89
:1000B800010E0A6E1D04D8A4DED7E1D7136E1FD037
:1000C800898289921200898200F0899212008982BD
:1000D80000F000F000F089921200898200F000F030
:1000E80000F000F000F089921200898200F000F020
:1000F80000F000F000F000F000F0899212001350B8
:10010800116E126A1250000AD8A412001150010A86
:10011800D8B4D6D7030AD8B4D6D7010AD8B4D7D713
:10012800070AD8B4DAD7010AD8A41200DED7000E1D
:100138008D6E000E8C6E000E896E000E8A6E000E9B
:100148008B6E070E966EFC0E926E93689468956897
:10015800000E0F013B6F000E3A6F000E396F000E54
:100168003C6F000E386F000E616EF18E1200F28E39
:10017800F28C000E196E000E186E000E1B6E000E2B
:100188001A6E000E066E010E056E0A0E0B6E000E3C
:100198001D6E010E0A6E010E096E12009E9003C0BC
:1001A8000DF004C00EF034EC01F001500210D8B488
:1001B800120001D812000500FA6E0150FD6E0250BF
:1001C800FE6EF850FF6EFA501200000ECC6EFE0E56
:1001D800CF6EFE0ECE6ECECF03F0CFCF04F09E9042
:1001E8009D80EE0E116E020E126E6DEC01F0050E82
:1001F800CD6E1200F2940CC0D6FF07500810D8B488
:10020800120001D812000500FA6E0750FD6E085062
:10021800FE6EF850FF6EFA501200020E926E23EC3A
:1002280001F083EC01F081EC01F0095062EC00F080
:10023800010E896E000E1B6E000E1A6E1200000E63
:10024800D76E880ED66E880E0C6EF294F28AF40E73
:10025800116E020E126E72EC01F0D50ED56E120000
:10026800CDA407D0CD900E50CF6E0DC0CEFFCD805F
:1002780012000E50CF6E0DC0CEFF120000EE16F029
:10028800080EEE6AE806FDE11E901E92000EF86E5A
:1002980000011DEF00F07FEC01F07DEC01F09268A9
:1002A800000E896E000E196E000E186E120085EC95
:1002B80001F09BEC00F066EC01F0E9EC00F023ECB7
:1002C80001F01200020ED36E040ED26E000E9B6E69
:1002D800120011C001F012C002F0120011C007F0A4
:1002E80012C008F01200010E1C6E12001A4A1B2AD6
:1002F8001200CD901200D59E1200CD801200D58E2E
:060308001200D09E12005D
:020000040020DA
:08000000FFFFFFFFFFFFFFFF00
:020000040030CA
:0E000000FF201F2EFFBF85FF0FC00FE00F4037
:00000001FF
